:400000000010002011000000050A0000050A000080B500AF00F0FAFC80B584B000AF021CFB1D1A70224A3B1C0B3312781A70214A3B1C0A3312781A701F4B1B68013BFB6013
:400040001AE01E4B1868391C0B31FA68131C5B009B18C31801331B780B70184B1868391C0A31FA68131C5B009B18C31802331B780B70FB68013BFB60FB68002B0ADB0F4B59
:400080001968FA68131C5B009B185B5CFA1D12789A42D6D90A4B3A1C0B3212781A60094B3A1C0A3212781A60BD4604B080BDC046CCF1FF0FCDF1FF0FD0220000CC000020F8
:4000C0001CFF0B4020FF0B4080B500AF184B184A12688021C9020A431A601820FFF79CFF144B19221A60052001F072FB124B134A1278D2B21A60052001F060FC0C4B0C4A19
:4001000011680F4A0A401A600E4B10221A600E4B10221A600D4B802212061A600C4B802212061A600B4B0C4A1A60BD4680BDC04600010B402CFF0B4028FF0B40E5F1FF0F84
:40014000FFFFFBFF080202400C02024008010B4004010B40000002400E00008080B582B000AF72B6FB1D00221A7023E0FB1D1A78131C5B009B185B00404A9B183B603B68B5
:400180001A78597809020A43997809040A43DB781B0613431A1C3B6819795B791B020B439BB2101C191C00F0B1FCFB1DFA1D127801321A70FB1D1B78012BD7D9304A314B67
:4001C000101C191C00F0B2FC2F4B304A1A60304B03221A602F4B304A1A60304B61221A602F4B304A1A60304B01221A602F4B06221A602F4B2F4A1A602F4BD3221A602F4B20
:400200002F4A1A602F4B992212041A602E4B802292051A602D4B8022D2041A602C4B992212041A602B4BC02292021A602A4B992212041A60294B992212041A60284B8822AC
:4002400092051A60274B802212061A60264B264A1278D2B202210A43D2B21A70224B224A1278D2B206210A43D2B21A70FFF72CFF00F09CFCBD4602B080BDC04670220000BE
:400280007C220000942200000000014003003000040001400C000140EEEE0030000004400800044006000B00000104400801044008020440B66D1B00000304400803044083
:4002C000A42DC80000500F4004500F4008500F4010500F4018500F4020500F4030500F4034500F4038500F4000700F4010B5064C2378002B07D10548002802D0044800E0F7
:4003000000BF0121217010BD48010020000000001822000008B5084B002B03D00748084900E000BF07480168002903D0064A002A00D0904708BDC0460000000018220000B4
:400340004C010020C80000200000000090B59FB000AF3B1C6C33962252001A803B1C773300221A703B1C763300221A703B1C733300221A703B1C723364221A703B1C713342
:4003800063221A703B1C703303221A703B1C6F3364221A703B1C6E3300221A7062B600F00BFD012000F0B2FD0020002100F016FDBF4B181C00F04CFD0120002100F00EFD10
:4003C000BC4B181C00F044FD01200A2100F006FD3B1C71331B789BB2181C00F087FE00F019FF00F0E7FBB44B00221A70B24B3620191C0122002300F099FF031CDAB2AF4B4E
:400400001A70C046AD4B1B78002BFBD1C04601F0ADF8021C04231340F9D101F0C3F8031CDAB2A64B1A70402000F080FA01200E2100F0D4FCA24B1B78DAB2A24B1A70A14B91
:400440001B78092B02D8202000F02EFD9D4B1B78181C00F04BFE00200A2100F0BFFC3B1C77331B78092B02D8202000F01DFD3B1C77331B789BB2181C00F038FE3B1C76337B
:400480001B78002B03D0012B00D10CE117E201F025F9031C002B3CD13B1C72331B78012B07D93B1C72333A1C72321278013A1A7033E03B1C72331B78012B2ED101200A2169
:4004C00000F08CFC3B1C71331B78052B04D13B1C71330A221A7010E03B1C71331B780A2B04D13B1C713363221A7006E03B1C713305221A70202000F0D7FC3B1C71331B788B
:400500009BB2181C00F0F2FD3B1C723300221A7003E03B1C723364221A7001F0D1F8031C002B35D13B1C6F331B78012B07D93B1C6F333A1C6F321278013A1A702CE03B1C80
:400540006F331B78012B27D13B1C6F3300221A703B1C70331B78002B07D03B1C70333A1C70321278013A1A7016E03B1C703303221A70544B00221A70524A514B101C191C2A
:40058000012200F01BFB031CDAB24C4B1A7003E03B1C6F3364221A7001F074F8031C002B00D08DE130E03B1C6E333A1C6E32127801321A7023E03B1C743300221A8019E07A
:4005C0003B1C74331B880122101C9840031CDBB2181C01F065F8FA235B00181C01F0CAF9002001F05DF83B1C74333A1C7432128801321A803B1C74331B88032BE0D901F065
:400600005FF8031C002BD6D001F03CF8031C002BC9D03B1C6E331B78181C01F0E5FC3B1C773300221A703B1C733300221A700020002100F0D3FB244B181C00F009FC3B1C96
:40064000743300221A8019E03B1C74331C8801F0FFFC021C1D4B134004D5013B0422524213430133DBB20133DAB23B1D1A553B1C74333A1C7432128801321A803B1C7433EB
:400680001B88622BE0D9002000F050F996235B00181C01F06FF93B1C76333A1C7632127801321A700CE13B1C743300221A8047E02022000034220000800100208201002068
:4006C0001C22000068010020402200000300008000F006F93C1C6C3400F05AF9031C23803B1C6C331B88181C01F044F93B1C74331B883A1DD35C013B01229A403B1C6B3312
:400700001A703B1C6B331B78181C00F0C9FF3B1C6B331B78181C00F009F93B1C6C331B88181C01F027F9002000F0BAFF002000F0FDF83B1C74333A1C7432128801321A8000
:400740003B1C74331A883B1C77331B7801339A42BEDB3B1C743300221A8040E000F0C0F83B1C6A33584A52781A703C1C6C3400F00FF9031C23803B1C6A331B78002BEDD00F
:400780003B1C6A331B78181C00F08AFF3B1C6A331A783B1C74331B88391DCB5C013B0121081C9840031C9A420AD03B1C733301221A70002000F074FF1AE000F091F800E0B2
:4007C000C046414B5B78002BF7D1002000F068FF3B1C74333A1C7432128801321A803B1C74331A883B1C77331B7801339A42B5DB3B1C73331B78002B0CD13B1C77333A1C06
:400800007732127801321A7096235B00181C01F0B1F825E02D4B1B783A1C773212789A420FD92A4B3A1C773212781A70274A284B101C191C012200F0C1F9031CDAB2254BD4
:400840001A700020002100F0C9FA234B181C00F0FFFA102000F06AF83B1C763300221A703A1C77323B1C713312781B789A4229D1164B1B783A1C773212789A420FD9134BB5
:400880003A1C773212781A70104A114B101C191C012200F093F9031CDAB20E4B1A700020002100F09BFA0D4B181C00F0D1FA202000F03CF83B1C763300221A7002E002E000
:4008C000C04600E0C046B1E564010020680100201C22000082010020482200005022000080B500AF0F4B3620191C0322002300F0A9FD031CDAB20C4B1A70C0460A4B1B788A
:40090000002BFBD1C04600F031FE021C04231340F9D100F047FE031CDAB2034B1A70BD4680BDC046640100208201002080B582B000AF021CFB1D1A70134BFA1D12785A7074
:40094000114B3620191C0222002300F0EFFC031CDAB20E4B1A70C0460C4B1B78002BFBD1C04600F003FE021C04231340F9D100F019FE031CDAB2054B1A70642000F0FAFFA7
:40098000BD4602B080BDC046800100208201002080B582B000AF0120002100F01FFA154B9B78022B0CD0042B12D0012B18D1BB1D962252001A80104B181C00F049FA13E0C7
:4009C000BB1D64221A800D4B181C00F041FA0BE0BB1D01221A800A4B181C00F039FA03E0BB1D01221A80C046BB1D1B88181CBD4602B080BD6401002058220000602200007C
:400A00006822000080B500AFFEE7C04680B586B000AF254B7B61254B3B61234B7B61234B3B6132E03B691B68FB603B695B68BB603B699B683B6000237B600CE0FB681A6870
:400A4000BB681A60BB680433BB60FB680433FB607B6804337B607A683B689A42EED13B69DB683B6000237B6008E0BB6800221A60BB680433BB607B6804337B607A683B6844
:400A80009A42F2D13B6910333B617B695A1E9341DBB27A69013A7A61002BC3D101F06CFAFFF754FCFEE7C04601000000FC22000080B582B000AF00237B600FE07B68032BE4
:400AC00004D80E4B7A689200D35800E00C4B0D4A796889008B507B6801337B607B682F2BECD9FFF73BFB084B00221A608023DB0501221A60BD4602B080BDC0460000000028
:400B0000050A000000000020C000002080B582B000AF786039607A683B68101C00211A1C01F059FABD4602B080BDC04680B586B000AF7860396000233B6100237B612EE084
:400B40007B699B007A68D3181B68BB603B1C0F33BA681A70BB68FF229343BB6017E03B695B003A68D3181B781A1CBB68D3183A69520039688A1852781A703B6901333B61B7
:400B80003B1C0F333A1C0F321278013A1A703B1C0F331B78002BE2D17B6901337B617B69052BCDD9BD4606B080BDC04680B500AFBD4680BD80B500AFBD4680BD80B5ACB029
:400BC00000AFF860B9607A60BB689820C0190360BA687B68D218554B9A4200D98BE09821C9190B68DB0B9422D21913609820C0190368DA09FF231340AC21C9190B60942209
:400C0000D21913681A02AC20C0190368D318DB019C21C9190B600023A422D21913600023A020C01903605AE00023A821C9190B603CE09C23DB191A689820C01903689A424F
:400C40001AD3A421C9190A687B689A4214D2FA68A420C0190368D3181A78391C1431A820C0190368CB181A70A421C9190B680133A422D21913600BE09C20C01903681B78DF
:400C8000DAB2391C1431A820C0190368CB181A709C21C9190B6801339C22D2191360A820C01903680133A821C9190B60A822D21913687F2BBDD9AC23DB191A683B1C14338A
:400CC000101C191C00F094FD031CA020C0190360AC21C9190B680133AC22D2191360A423DB191A687B689A4209D2A020C0190368002B99D003E00123A021C9190B60A0222F
:400D0000D2191368002B09D0A020C0190368012B04D001235B42A021C9190B60A022D2191368181CBD462CB080BDC046FF7F000080B500AF282000F01DFE032000F0ACF98B
:400D4000052000F017FE032000F0A6F90F2000F011FE032000F0A0F9012000F00BFE022000F09AF9052000F005FE062000F0CEF80E2000F0CBF82C2000F0C8F8082000F015
:400D8000C5F8012000F0C2F80C2000F0BFF8032000F0BCF8052000F0EDFDBD4680BDC04680B500AF0C2000F0B1F8024B01221A70BD4680BD6C01002080B500AF064B1B7894
:400DC000002B04D1FFF7B4FF034B01221A70FFF7E7FFBD4680BDC0466D01002080B582B000AF0A1CFB1D011C1970BB1D1A70FB1D1B78012B10D002DC002B05D024E0022B7D
:400E000012D0032B18D01FE0BB1D1B78803BDBB2181C00F07BF818E0BB1D1B78403BDBB2181C00F073F810E0BB1D1B786C3BDBB2181C00F06BF808E0BB1D1B782C3BDBB21A
:400E4000181C00F063F800E0C046BD4602B080BD80B584B000AF78603B1C0F3301221A703B1C0E337A6812781A7015E03B1C0E331B78181C00F026F83B1C0F331B787A68E7
:400E8000D2183B1C0E3312781A703B1C0F333A1C0F32127801321A703B1C0E331B78002BE4D1BD4604B080BD80B582B000AF021CFB1D1A70FB1D1B78181C00F003F8BD4683
:400EC00002B080BD80B584B000AF021CFB1D1A7000F040F83B1C0F33FA1D127812091A703B1C0F331B78181C00F0A4F83B1C0F33FA1D11780F220A401A703B1C0F331B78CE
:400F0000181C00F097F8BD4604B080BD80B584B000AF021CFB1D1A7000F01CF83B1C0F33FA1D127812091A703B1C0F331B78181C00F0B2F83B1C0F33FA1D11780F220A40A1
:400F40001A703B1C0F331B78181C00F0A5F8BD4604B080BD80B582B000AF314B304A12687F218A431A602F4B1B681B0B1B037B602C4B7A682C490A431A60294B284A126888
:400F800020218A431A60264B254A126840210A431A60002000F012FD214B214A126810210A431A60012000F009FD204B1B687B601B4B1B4A126810218A431A60002000F012
:400FC000FDFC7A68082313407B60154B144A126810210A431A60012000F0F0FC104B104A126810218A431A607B68002BD1D10C4B0B4A126840218A431A60094B084A12684B
:401000007F218A431A60074B1B681B0B1B037B60044B7A6806490A431A60BD4602B080BD00020440080204404902000004020440B60D000080B582B000AF021CFB1D1A70DA
:40104000FFF788FF134B134A126820210A431A60104B104A126840218A431A600D4B0D4A12680F218A431A600A4B0A4A1168FA1D127810200243D2B20A431A60012000F0AB
:401080009DFC044B034A126810218A431A60BD4602B080BD0002044080B582B000AF021CFB1D1A70104B104A126860218A431A600D4B0D4A12680F218A431A600A4B0A4ABB
:4010C0001168FA1D127810200243D2B20A431A60012000F073FC044B034A126810218A431A60BD4602B080BD0002044090B587B000AF021CBB1D1A803B1C173300221A70C8
:4011000020E03B1C17331C78BB1D1B88181C0A2100F026FF0B1C9BB2DBB23033DAB23B1C08331A55BC1DBB1D1B88181C0A2100F0D3FE031C23803B1C17333A1C173212789A
:4011400001321A70BB1D1B88092BDAD83B1C17331C78BB1D1B88181C0A2100F001FF0B1C9BB2DBB23033DAB23B1C08331A553B1C16333A1C173212781A7016E03B1C163378
:401180001A783B1C17331B78D31A3A1C17321278391C0831895C3A1C1032D1543B1C17333A1C17321278013A1A703B1C17331B78002BE3D13B1C16331B783A1C0832117835
:4011C0003A1C1032D1543B1C16331B7801333A1C10320021D1543B1C1033181CFFF738FEBD4607B090BDC04680B500AF00F02AF8BD4680BD80B500AF054B054A1268802112
:4012000009060A431A6000F017F8BD4680BDC0460000074080B500AF064B1B78002B04D1044B01221A70FFF7DFFFFFF7E3FFBD4680BDC0467001002080B500AF00F08EFAA9
:40124000BD4680BD80B500AF214B00221A60214B214A1A60214B214A12680C210A431A601F4B204A1A60204B00221A601F4B00221A601F4B1F4A1A601F4B00221A6000F00E
:4012800077FA1E4B181C00F037FA032000F040FA1B4B00221A601B4B00221A601A4B00221A601A4B1A4A1A601A4B00221A601A4B00221A60194B10221A70194B00221A8028
:4012C000184B00221A60184B00221A60BD4680BD0000074060000740770800807000074000030740070300800403074010030740000207400701008004020740E519000074
:40130000880E0740C80E0740480F0740080F074013010000C80F0740880F07408301002090010020A00100208801002080B586B000AFF860B9607A603B6004237B61BB68C2
:40134000002B1FD0314B1B78DBB2102B0BD100F00FFA2F4B1A680123134001D0082300E000237B610EE0294B1B78DBB2602B09D1284B1B889BB2082293439AB2254B1A80B9
:4013800000237B617B69002B38D1204B28221A70214B00221A60214B00221A60204B7A681A60204BBA681A603B68DAB21E4B1A70FB685A00FF231340FB60164B1B889BB2F9
:4013C000022293439AB2134B1A80184B184A1A60184B40221A603A680123134005D000F0F3F8154BFA681A6005E0134BFA681A60124B02221A60124B40221A6000F0AEF942
:401400007B69181CBD4606B080BDC04683010020640007409001002084010020880100208C010020A401002098010020000F074017030000800F07404002074068000740A1
:40144000880F074080B586B000AFF860B9607A603B6004237B61BB68002B1FD0364B1B78DBB2102B0BD100F083F9344B1A680123134001D0082300E000237B610EE02E4B70
:401480001B78DBB2602B09D12D4B1B889BB2082293439AB22A4B1A8000237B617B69002B43D1254B29221A70264B00221A60264B7A681A60254BBA681A603B68DAB2244BF9
:4014C0001A70FB685A00FF23134001221343FB601B4B1B889BB2012293439AB2184B1A801C4B1D4A1A603A680123134005D000F06BF81A4BFA681A6005E0184BFA681A60D6
:40150000174B02221A60104B1B68072B03D8154B04221A6009E0144B134A1268802149000A431A600F4B08221A6000F017F97B69181CBD4606B080BD830100206400074095
:4015400090010020A00100209C0100209401002098010020000F0740170300004002074068000740C80F07406000074080B582B000AF0A4B1B889BB27B60094B1B78DAB2B8
:4015800020231340DBB2002B03D07B68042213437B607B68181CBD4602B080BD900100208301002080B582B000AF064B1B889BB27B60044B00221A807B68181CBD4602B069
:4015C00080BDC0469001002080B500AF294B1A682023134036D0002000F0D4F8264B264A12680F218A431A60244B244A1268520052081A60002000F0C5F80A2000F0DEF998
:40160000012000F0BFF80A2000F0D8F9002000F0B9F80A2000F0D2F9184B184A1268802109060A431A60144B134A12680F218A430E210A431A60124B01221A60002000F068
:40164000A1F815E0002000F09DF80C4B0B4A1268520052081A60094B084A1268802109060A431A60064B01221A60012000F08AF8BD4680BD640007400C0001400000074054
:401680006800074080B500AF044B1A68402313409B09DBB2181CBD4680BDC0460400044080B582B000AF021CFB1D1A70034BFA1D12781A70BD4602B080BDC04672000F4015
:4016C00080B500AF044B1A68402313409B09DBB2181CBD4680BDC0460403044080B500AF044B1A68102313401B09DBB2181CBD4680BDC0460403044080B582B000AF7860EA
:40170000024B7A68DA66BD4602B080BD0000002090B585B000AF021CFB1D1A701E23FB603C1C0B3400F05DF8031C23700A4B0A4A126892009108FA1D1078FA68041C9440D2
:40174000221C0A431A603B1C0B331B78181C00F04CF8BD4605B090BD08E400E080B500AF024B802212011A60BD4680BD00E100E080B500AF024B802212011A60BD4680BD02
:4017800080E100E080B584B000AF021CFB1D1A700D4B1B68DAB23B1C0F3301218A431A70FB1D1A7801231340D9B23B1C0F333A1C0F3212780A431A70034B3A1C0F321278EB
:4017C0001A60BD4604B080BD00030440000000000230800804D0C0460138FDD1C046C0467047EFF3108072B6704780F31088704790B5ABB000AF7860396000239C21C91941
:401800000B607B68FF2B00D998E03B68002B00D194E03B1C1033A422D21913604E4BA421C9190A681A607A6880235B0013401B044A4A1A433B1C10331A603B1C10337F2250
:401840005A603B1C10331A1C08323B68101C191C802200F0B7FB424B424A1A60C046404B1B68002BFBDB3C4B1B689822D21913609823DB191A68A0231B069A4204D10023A9
:401880009C21C9190B6016E09822D21913681B0F1A07F0231B069A4204D109239C21C9190B6008E0C0462C4B1B681B0F1A07A0231B069A42F7D19C22D2191368002B42D185
:4018C0003B1C1033A421C9190B60234BA421C9190A681A607B681B04234A1A433B1C10331A603C1CA334FFF77CFF031C23701F4B1B68FB601A4B1E4A1A60C046184B1B688E
:40190000002BFBDB194BFA681A603B1CA3331B78181CFFF76AFF104B1B689822D21913609823DB191A68A0231B069A420BD09821C9190B689C22D219136004E001239C2162
:40194000C9190B6000E0C0469C22D2191368181CBD462BB090BDC04608000040B6D700000400004004000080B6D8000008010B400500008080B582B000AF786008E00C4B7A
:401980001B68181CFFF724FF7B680A4A9B187B607A6880231B029A42F1D8074B1B687A685343181CFFF714FFBD4602B080BDC046DC0000200080FFFFD400002080B582B0F4
:4019C00000AF021CBB1D1A80BB1D1B88044A12785343181CFFF7FCFEBD4602B080BDC046D800002090B585B000AF0023BB60C04B1B68002B02D0BE4B1B689847BD4B1A68C4
:401A00000123134002D0BC4B00221A60BB4B1B78DAB220231340DBB2002B3CD0B84B1A6880235B0013400AD0B64B1B889BB2C022920013439AB2B34B1A800123BB60B04BB2
:401A40001A68012313400AD0AE4B1B889BB29022920013439AB2AB4B1A800123BB60BB68002B18D0A54B1B78DAB201231340DBB2002B01D0012300E00223A24A128892B2BD
:401A800091B21A1C0B1C13439BB29AB29D4B1A809A4B00221A70994B1B78DAB220231340DBB2002B00D1A7E1954B1A68102313401CD0954B10221A60904B1B78DAB201235C
:401AC0001340DBB2002B01D0012300E002238D4A128892B291B21A1C0B1C13439BB29AB2884B1A80854B10221A70C5E1834B1B78DAB208231340DBB2002B25D0804B1A6899
:401B0000022313400ED0804B02221A607D4B1B889BB28822920013439AB27A4B1A800123BB6011E0754B1B78DAB201231340DBB2002B03D0714B25221A7005E06F4B24226E
:401B40001A70724B10221A606C4B1B78DAB204231340DBB2002B00D111E1684B1B78DAB201231340DBB2002B5BD0694B1A680823134033D0674B1A68674B19680F231940D2
:401B8000664B1B68CB18D31AFB60FB68082B02D90823FB601EE0FB68002B1BD1604B604A1168604A0A401A600823FB600123BB6010E05D4B1A68594B1B68D2185B4B1B6802
:401BC000DBB21370554B1B685A1C544B1A60FB68013BFB60FB68002BEBD11EE04C4B1A680423134019D0504B1A684C4B1B68D2184E4B1B68DBB21370484B1B685A1C474BFA
:401C00001A60464B1A68434B1B689A4203D2484B04221A6001E00123BB60464B464A1A60ADE0374B1A680223134032D0364B02221A60424B1A68424B19680F231940404B0A
:401C4000186880231B02034001D0012300E00023CB18D21A394B1A60384B1A68394B1A60284B1B889BB28422920013439AB2254B1A80354B344A1268802149020A431A60A7
:401C8000314B314A1168314A0A401A600123BB6075E02F4B1A681023134065D013E0274B1A682C4B1B689A4214D22B4B2B4A1168224A12688A181278D2B21A601F4B1B6826
:401CC0005A1C1E4B1A601E4B1A680F231340082BE5D100E0C046194B1A681E4B1B689A4202D10A4B40221A601D4B1E4A1A6046E0740100208C0E0740880E07408301002033
:401D00000C0F074090010020000F0740880F0740CC0F07409C01002008030740A001002060000740FFFEFFFF940100204003074068000740C00F0740ED0F00008401002023
:401D4000080207408801002004020740FFFFFEFF8C0F07408C01002040020740A4010020800F0740F3070000454B1A684023134005D0444B1A68444B1A600123BB60BB685B
:401D8000002B00D178E0414B404A1168404A0A401A60404B00221A603F4B00221A603F4B1B78DAB202231340DBB2002B19D03C4B1B78DAB201231340DBB2002B01D0092311
:401DC00000E00A23374A128892B291B21A1C0B1C13439BB29AB2334B1A80314B60221A704AE0314B314A116820220A4001D0182200E010221A603FE0294B1B78DAB21023A6
:401E00001340DBB2002B37D1294B2A4A1A602A4B2A4A1A60FC1DFFF7E4FC031C2370284B274A1268520052081A60254B244A1268802109060A431A60FB1D1B78181CFFF701
:401E4000D4FC124B114A11681E4A0A401A600F4B0E4A11680E4A0A401A600E4B00221A600D4B00221A60184B184A1A60184B194A1A600B4B10221A70BD4605B090BDC04669
:401E80008C0F0740840100208801002060000740FFFEFFFFC80F0740880F07409801002083010020900100206800074064000740400F0740FF0F0000000F074017030000D8
:401EC00000000740FFDFFFFF800F0740ED0F0000C00F0740F3070000002934D00123002210B488422CD301242407A14204D2814202D209011B01F8E7E400A14204D28142D8
:401F000002D249005B00F8E7884201D3401A1A434C08A04202D3001B5C0822438C08A04202D3001B9C082243CC08A04202D3001BDC082243002803D01B0901D00909E3E7DC
:401F4000101C10BC7047002801D00020C04307B4024802A14018029003BDC046190000000029F0D003B5FFF7B9FF0EBC4243891A1847C0467047C04670B50E4B0E4D0024C5
:401F8000E81A85101E1CAC4204D0A100725890470134F8E700F0A0F90849094A0E1C541AA5100024AC4204D0A300F05880470134F8E770BDE4220000E4220000E4220000D3
:401FC000EC22000010B50023934203D0CC5CC4540133F9E710BD00B58218031C934202D019700133FAE700BD70B5124C051C2668B36B002B17D1182000F06AF8B06320682A
:402000000D4A816B0D4B0A800D4A8B800B230D4E0A818B81012200230B480A614B614E800526C8804E812468A16B0D6100254D6170BDC046440100200E3300003412000041
:40204000ECDEFFFFCDABFFFF6DE6FFFF0000000038B5194C2568AB6B002B17D1182000F037F8A8632068154A816B154B0A80154A8B800B23144D0A818B8101220023134879
:402080000A614B614D800525C8804D812468094B074AA56B2869696900F080F801230024C0186141286169614900480838BDC0462D7F954C2DF45158440100200E3300004A
:4020C00034120000ECDEFFFFCDABFFFF6DE6FFFF08B5034B011C186800F004F808BDC0464401002070B50323CD1C9D430835061C0C2D01D20C2501E0002D2DDB8D422BD3B4
:402100001C4A1368111C1C1C002C12D02068421B0CD40B2A02D92260A41815E0A34202D166680E601CE065685D6019E0231C6468EAE7301C291C00F01FF8421C0CD0C41C42
:4021400003218C43844201D1256009E0211A301C00F012F80130F7D10C243460002008E0201C0B300722211D9043431A01D05D42E55070BD7801002038B5074C0023051C23
:40218000081C236000F02CF8431C03D12168002900D0296038BDC046A80100209C460304F0B51B0C17043F0C150C1E1C041C000C7E436B4347434543FB18300C18188742F7
:4021C00002D980277B02ED18070CED1967467C434A433604330CA11800044919C018F0BD0A4A00B51368002B0CD018186946884202D81060181C00BD054B0C2201201A6024
:402200004342F7E7034B1360EFE7C0467C010020A8010020B0010020000000000000000020202020202020233A202020202048530000000020202020204D41583A0000002F
:4022400052554E20000000004641494C000000005041535300000000534C4F57000000004D45442000000000464153540000000000300F40000400400F40000402320F40F4
:402280000A330F4004400F4008410F4004430F4002600F405B045F016C046D046E026F01800487018904A601B601EA1052205F02D420D6805F8082208780A620B702D62095
:4022C000E240E68060808880D802E004020111010400000043000000F8B5C046F8BC08BC9E46704715030000B10A0000F8B5C046F8BC08BC9E467047ED02000010230000D3
:40230000C800002080000000680000000000000000000000C0F1FF0F00366E01C05D0000180000000000E02E00000000000000000000000000000000000000000000000026
:402340000000000000000000D42200000000000000000000000000000000000000000000000000000000000000000000000000000000000000000000000000000000000067
:40238000000000000000000000000000E00000200000000000000000000000000000000000000000000000000000000000000000000000000000000000000000000000001D
:4023C00000000000000000000000000000000000000000000000000000000000000000000000000000000000000000000000000000000000000000000000000000000000DD
:40240000000000000000000000000000000000000000000000000000000000000000000000000000000000000000000000000000000000000000000000000000000000009C
:40244000000000000000000000000000000000000000000000000000000000000000000000000000000000000000000000000000000000000000000000000000000000005C
:40248000000000000000000000000000000000000000000000000000000000000000000000000000000000000000000000000000000000000000000000000000000000001C
:0200000490303A
:02000000128666
:0200000490402A
:200000000000000000000000000000000000000000000000000000000000000000000000E0
:0200000490501A
:0C000000000204C81193110104D324195C
:0200000490600A
:0100000001FE
:00000001FF