:400000000010002011000000890800008908000080B500AF00F03CFC80B584B000AF021CFB1D1A70224A3B1C0B3312781A70214A3B1C0A3312781A701F4B1B68013BFB60CD
:400040001AE01E4B1868391C0B31FA68131C5B009B18C31801331B780B70184B1868391C0A31FA68131C5B009B18C31802331B780B70FB68013BFB60FB68002B0ADB0F4B59
:400080001968FA68131C5B009B185B5CFA1D12789A42D6D90A4B3A1C0B3212781A60094B3A1C0A3212781A60BD4604B080BDC046CCF1FF0FCDF1FF0FD0260000D4000020EC
:4000C0001CFF0B4020FF0B4080B500AF1F4B1F4A12688021C9020A431A601820FFF79CFF1B4B19221A60052001F0C6FD194B1A4A1278D2B21A60052002F050F8134B134AA5
:400100001168164A0A401A60154B20221A60154B20221A60144B10221A60144B30221A60134B30221A60134B822212061A60124B802212061A60114B114A1A60114B124A7C
:400140001A60124B124A1A60BD4680BD00010B402CFF0B4028FF0B40E5F1FF0FFFFFFBFF080202400C0202401C020240200202403002024008010B4004010B4000000240C8
:4001800009000080400002400E000080800002404C4B008080B582B000AF72B6FB1D00221A7023E0FB1D1A78131C5B009B185B00454A9B183B603B681A78597809020A434B
:4001C000997809040A43DB781B0613431A1C3B6819795B791B020B439BB2101C191C00F0DBFBFB1DFA1D127801321A70FB1D1B78012BD7D9354A364B101C191C00F0DCFB87
:40020000344B802252001A80334B01221A70334B334A1A60334B03221A60334B334A1A60334BF1221A60334B334A1A60334B01221A60334B06221A60324B01221A60324B2D
:40024000324A1A60324B01221A60324BF3221A60314B324A1A60324B324A1A60324BA22212061A60314B802212051A60304B992212041A602F4BC02292021A602E4B992297
:4002800012041A602D4B274A1A602D4B882292051A602C4BC02212061A602B4B2A4A1278D2B202210A43D2B21A70274B264A1278D2B206210A43D2B21A70FFF705FF00F05B
:4002C000BBFBBD4602B080BD402400004C2400007024000000600F4002600F400000014003003000040001400C000140EE003030000004400800044036204B0000010440C4
:40030000080104400002044008020440B06DDB001802044000030440080304402420CB0000500F400400990004500F4008500F4010500F4018500F4020500F4030500F4067
:4003400034500F4038500F4000700F4010B5064C2378002B07D10548002802D0044800E000BF0121217010BDE8000020000000000424000008B5084B002B03D007480849CF
:4003800000E000BF07480168002903D0064A002A00D0904708BDC0460000000004240000EC000020C80000200000000080B500AF042001F0C3FD064B1B78002B05D0044BF6
:4003C0001B78013BDAB2024B1A70BD4680BDC046CF00002080B500AF012001F089FB094B1B78002B06D0074B1B78013BDAB2054B1A7004E001F01EFB024B4B221A70BD4678
:4004000080BDC046D000002080B59CB000AF3B1C6D330A221A703B1C6C3300221A703B1C6B330A221A703B1C6A3300221A703B1C693301221A703B1C683300221A703B1C2A
:40044000663300221A8062B600F078FE0120002100F092FECA4B181C00F0C8FE01F0D4F801F0DCF9C74B032001211A1C00F0C4FB00F024FB012001F0A1F80020012101F03C
:4004800053FCC14B0020191C01F01EFD0020012101F082FC002001F0E3FC012001F0B0FCBA4B181C01F08AFBB94B181C01F02CFB00E0C04601F074F8031C002B34D13B1C39
:4004C0006B331B78002B07D03B1C6B333A1C6B321278013A1A702FE03B1C6A331B78002B2AD13B1C6A3301221A70AA4B64221A703B1C6C331B785A425341DAB23B1C6C33F5
:400500001A7000200B2100F037FE3B1C6C331B78002B04D0A04B181C00F068FE0CE09F4B181C00F063FE07E03B1C6B330A221A703B1C6A3300221A703B1C6C331B78002B82
:400540002DD100F069F901F073FE031C1A1C3B1C6E330F214A401A703B1C6E331B78002B04D13B1C6D330A221A7012E0894B64221A703B1C6D331B78002B0AD03B1C6E33A3
:4005800000221A703B1C6D333A1C6D321278013A1A707C4B3A1C6E3212785A70A3E0794B1B78202B07D0774B1B78102B03D0754B1B78402B08D13B1C693301221A703B1C56
:4005C000683300221A708EE03B1C6F3300221A703DE0012001F0BEFD00F01EF900E0C046684B1B78002BF4D0664B1B78202B03D0644B1B78102B07D13B1C683301221A703F
:400600000F2000F0BDFF1BE03B1C6F331B785D4A11783A1CD1543B1C6F331B783A1CD35CDB43DBB2181C00F0ABFF02E0012001F091FD544B1B78002BF8D10F2000F0A0FFBD
:400640003B1C6F333A1C6F32127801321A703A1C6F323B1C693312781B789A42BFD3C8235B00181C01F076FD3B1C68331B78002B39D13B1C6F3300221A7025E03B1C6F3393
:400680001B783A1CD25C3F4B5A703B1C6F331B783A1CD35CDB43DBB2181C00F071FF3C2001F058FD374B00225A700F2000F068FF3C2001F04FFD00F0AFF83B1C6F333A1C6A
:4006C0006F32127801321A703A1C6F323B1C693312781B789A42D1D33B1C69333A1C6932127801321A700020002100F045FD3B1C6F33244A12781A703B1C6F331B78102BAB
:4007000011D002DC002B1ED029E0202B06D0402B25D1234B181C00F069FD4AE0214B181C00F064FD45E0204B181C00F05FFD3B1C66331B88002B3BD101F06AF93B1C663325
:4007400001221A8034E0194B181C00F04FFD3B1C663300221A800F4B64221A7029E03B1C6F331B78DB43DBB2181C00F009FF3B1C6E3301221A70074B64221A7019E0C0464C
:4007800008240000CC000020CD0C0000D5030000AD030000CF000020102400001824000020240000282400003024000038240000C0463B1C6E331B78002B02D10F2000F073
:4007C000DFFE144B1B78002B00D072E6012001F02FFB00F0B7FE01F083F8002000F0EEFE0F2000F0CDFE00F083F901F0EBFC00F085F9012000F0E2FE01F09EF800F0B2FEDA
:400800000F2000F0BDFE012001F0FAFA014B64221A704EE6CF00002080B500AF012001F019F8031C002B19D0002001F037F8031C9AB2124B1A80114B1B88452B03D8104BD8
:4008400001221A700AE00D4B1B88DB2B03D80C4B02221A7002E00A4B04221A70084B1A78084B9A700120082100F086FC044B1B78181C00F003FEBD4680BDC0461E0100208F
:4008800020010020CC00002080B500AFFEE7C04680B586B000AF254B7B61254B3B61234B7B61234B3B6132E03B691B68FB603B695B68BB603B699B683B6000237B600CE034
:4008C000FB681A68BB681A60BB680433BB60FB680433FB607B6804337B607A683B689A42EED13B69DB683B6000237B6008E0BB6800221A60BB680433BB607B6804337B6066
:400900007A683B689A42F2D13B6910333B617B695A1E9341DBB27A69013A7A61002BC3D101F040FDFFF770FDFEE7C04601000000FC26000080B582B000AF00237B600FE0F9
:400940007B68032B04D8104B7A689200D35800E00E4B0F4A796889008B507B6801337B607B682F2BECD9FFF715FC0A4B00221A608023DB058022D205126801210A431A606E
:40098000BD4602B080BDC046000000008908000000000020C000002080B582B000AF786039607A683B68101C00211A1C01F020FDBD4602B080BDC04680B586B000AF786027
:4009C000396000233B6100237B612EE07B699B007A68D3181B68BB603B1C0F33BA681A70BB68FF229343BB6017E03B695B003A68D3181B781A1CBB68D3183A69520039683E
:400A00008A1852781A703B6901333B613B1C0F333A1C0F321278013A1A703B1C0F331B78002BE2D17B6901337B617B69082BCDD9BD4606B080BDC04680B500AF034B0122C1
:400A40001A60012000F004F8BD4680BD00031A4080B584B000AF021CFB1D1A700B4B1B68FB60FB1D1B78002B05D0FB68802212061343FB6003E0FB685B005B08FB60034B20
:400A8000FA681A60BD4604B080BDC04680031A4080B500AF00F038F8BD4680BD80B500AF054B054A1268802109060A431A6000F017F8BD4680BDC0460000074080B500AF5B
:400AC000064B1B78002B04D1FFF7E2FF034B01221A70FFF7E3FFBD4680BDC0460401002080B500AF0B2001F0FFFABD4680BDC04680B500AF00F09EF8BD4680BD80B500AF30
:400B000000F0A2F8BD4680BD80B500AF234B802252001A60224B234A1A60234B224A12680C210A431A60214B214A1A60214B00221A60214B214A1A60214B1D4A1A60214B2C
:400B400000221A600B2001F0E5FA0B20012101F077FA1D4B0B20191C01F04CFA1B4B00221A601B4B00221A601A4B1B4A1A601B4B00221A601A4B00221A601A4B00221A60E4
:400B8000194B00221A70194B00221A70184B00221A80184B00221A70BD4680BD00000740600007400008004070000740000307400701008004030740100307406C00FE00D6
:400BC00000020740040207405D0C0000C80E0740880E0740480F074051010000080F0740C80F0740880F0740280100202C010020260100202401002080B584B000AFF86020
:400C0000B9607A607B68002B0AD0074B7A681A60FB689AB2054B1A80BB689AB2044B1A80BD4604B080BDC04630010020340100202A01002080B500AF024B01221A60BD467E
:400C400080BDC046880E074080B500AF024B00221A60BD4680BDC046880E074080B588B000AFCD4B1B68002B02D0CB4B1B689847CA4B1B88FB61CA4B1B68FB60C94B1B689A
:400C8000BB60FA68C84B134057D0C84BC74A1268520052081A60C64B1B78DAB220231340DBB2002B2CD0C24B1B78DBB220229343DAB2BF4B1A70BE4B1B78DBB210221343D6
:400CC000DAB2BB4B1A70BB4B1A68102313400FD1B94B1B781A1CB14B1B889A4210D0B44B1B78DBB208221343DAB2B14B1A7007E0AF4B1B78DBB202221343DAB2AC4B1A7089
:400D0000AE4BAE4A1168AE4A0A401A60AD4B00221A60A84B00221A60AB4BAC4A1A60A04BAB4A1A60AB4B00221A70A04B9F4A1268802109060A431A609CE1BA68102313401E
:400D400002D0A54B00221A60BA680A23134000D1C5E0A24B1A680423134000D171E0A04B1B687B609B4B1B78002B1DD0012B60D19C4B1B88002B13D09B4B01221A609B4BBA
:400D80001A68FB69D3187A68D2B21A70FB690133FB61944B1B88013B9AB2924B1A804CE0914B02221A6048E0914B1B881A1C7B689A423AD98C4B01221A607B68FB618D4B1D
:400DC0001B881A1C7B689A4206D98A4B1A887B689BB2D31A9BB200E00023824A1380814B1B88072B03D87B4B01221A7018E07D4B1B88082B0AD1714B704A1268A02109021D
:400E00000A431A606F4B00221A6009E06B4B6B4A1268802189010A431A606A4B08221A60FB69DAB2644B1A7007E06F4B02221A6003E0002001F084F9C046634B04221A604F
:400E40004DE05E4B1A6880239B01134047D0BA68022313400DD0684B1A680F2313403B61564B564A1168564A0A401A6001237B6122E05C4B1B88083B9AB25A4B1A80594BC8
:400E80001B88082B05D8574B1B883B6100237B6112E008233B6101237B610DE0534B1A68FB69D2184E4B1B68DBB21370FB690133FB613B69013B3B613B69002BEED17B697D
:400EC000002B09D13D4B3D4A1268802109020A431A603C4B00221A603B4B0C221A60BA680223134000D19EE0FA681023134026D0344B00221A602F4B00221A600223BB6167
:400F00002D4B1B781A1CFB699A4203D0BB6908221343BB61BB69FA681340BB61244B1B78DBB2BA691343BB61BB6920229343BB61BB69DAB21E4B1A70264B00221A70FA680A
:400F4000402313406CD01A4B1B78DBB220221343DAB2174B1A70184B1B78FB61274B1A681023134050D0224B1A88FB699BB2D31A9AB21C4B1A80224B214A126880214902C6
:400F80000A431A601E4B1E4A11681E4A0A401A60084B10221A603AE00801002026010020400F0740000E074001010000000007402C010020880F0740240100206000074020
:400FC000FF5FFFFFC80F0740C00F0740ED0F0000FF0F000028010020880E0740CC0F0740400307400C0100206C00074030010020340100202A0100200803074064000740B7
:4010000004020740FFFFFEFF1E4B04221A601E4B01221A601D4B1E4A1A601E4B01221A601A4BFA681A601C4B1A680423134021D01A4B1B88002B11D0194B1A4A1168FA69BC
:401040008A181278D2B21A60FB690133FB61134B1B88013B9AB2114B1A8002E0104BFF221A60114B1A680F231340082BE0D10F4B10221A60FB699AB20D4B1A80BD4608B051
:4010800080BDC046C80F0740800E0740400F0740FF0F00006C000740000E07400C010020400207403001002008020740800F07402601002080B500AF282001F04BF8032056
:4010C00000F0B0F9052001F045F8032000F0AAF90F2001F03FF8032000F0A4F9012001F039F8022000F09EF9052001F033F8062000F0CCF80E2000F0C9F82C2000F0C6F867
:40110000082000F0C3F8012000F0C0F80C2000F0BDF8032000F0BAF8052001F01BF8BD4680BDC04680B500AF0C2000F0AFF8024B01221A70BD4680BD0E01002080B500AF1A
:40114000064B1B78002B04D1FFF7B4FF034B01221A70FFF7E7FFBD4680BDC0460F01002080B500AF082000F091F8024B00221A70BD4680BD0E01002080B582B000AF0A1C6C
:40118000FB1D011C1970BB1D1A70FB1D1B78012B10D002DC002B05D024E0022B12D0032B18D01FE0BB1D1B78803BDBB2181C00F06DF818E0BB1D1B78403BDBB2181C00F087
:4011C00065F810E0BB1D1B786C3BDBB2181C00F05DF808E0BB1D1B782C3BDBB2181C00F055F800E0C046BD4602B080BD80B584B000AF78603B1C0F3301221A703B1C0E332C
:401200007A6812781A7015E03B1C0E331B78181C00F018F83B1C0F331B787A68D2183B1C0E3312781A703B1C0F333A1C0F32127801321A703B1C0E331B78002BE4D1BD463B
:4012400004B080BD80B584B000AF021CFB1D1A7000F040F83B1C0F33FA1D127812091A703B1C0F331B78181C00F0A6F83B1C0F33FA1D11780F220A401A703B1C0F331B7846
:40128000181C00F099F8BD4604B080BD80B584B000AF021CFB1D1A7000F01CF83B1C0F33FA1D127812091A703B1C0F331B78181C00F0B8F83B1C0F33FA1D11780F220A4016
:4012C0001A703B1C0F331B78181C00F0ABF8BD4604B080BD80B582B000AF314B304A1268FE218A431A602F4B1A682F4B13407B602C4B7A682D490A431A60294B284A1268F7
:4013000040218A431A60264B254A126880210A431A60002000F042FF214B214A126820210A431A60012000F039FF214B1B687B601B4B1B4A126820218A431A60002000F0A9
:401340002DFF7A68102313407B60154B144A126820210A431A60012000F020FF104B104A126820218A431A607B68002BD1D10C4B0B4A126880218A431A60094B084A1268F9
:40138000FE218A431A60074B1A68074B13407B60044B7A6807490A431A60BD4602B080BD00020440080204400780FFFF4812000004020440B06D000080B582B000AF021C2B
:4013C000FB1D1A70164B164A126840210A431A60134B134A126880218A431A60002000F0DDFE0F4B0E4A12681E218A431A600C4B0B4A1168FA1D12785200D2B2202002430D
:40140000D2B20A431A60012000F0C8FE044B044A126820218A431A60BD4602B080BDC0460002044080B582B000AF021CFB1D1A70114B114A1268C0218A431A600E4B0E4ACD
:4014400012681E218A431A600B4B0B4A1168FA1D12785200D2B220200243D2B20A431A60012000F09BFE044B034A126820218A431A60BD4602B080BD0002044080B586B016
:4014800000AF78603B1C17330A221A703B1C17331B783A1C08320021D1543B1C17333A1C17321278013A1A7021E07B68181C0A2100F00CFF0B1CDAB23B1C163330321A7038
:4014C0003B1C17331B783A1C0832391C16310978D1547B68181C0A2100F0B4FE031C7B603B1C17333A1C17321278013A1A707B68092BDAD87B68181C0A2100F0E7FE0B1C72
:40150000DAB23B1C163330321A703B1C17331B783A1C0832391C16310978D1543B1C17331B783A1C0832D318181CFFF75FFEBD4606B080BD80B500AFBD4680BD80B500AF59
:40154000BD4680BD80B500AF044B1A78044B1A70FFF7F0FFFFF704FEBD4680BD0E0100201001002080B500AFFFF7E8FF034B1B78012B01D1FFF7D6FDBD4680BD1001002036
:4015800080B582B000AF021CFB1D1A70034BFA1D12781A70BD4602B080BDC04672000F4080B500AF044B1A6880231340DB09DBB2181CBD4680BDC0460400044080B584B0DC
:4015C00000AF021CFB1D1A700E4B1B68DAB23B1C0F3302218A431A70FB1D1B785B00DAB202231340D9B23B1C0F333A1C0F3212780A431A70034B3A1C0F3212781A60BD46EF
:4016000004B080BD0000044080B500AF064B1B78002B04D100F00AF8034B01221A7000F0E1F8BD4680BDC0461401002090B585B000AF0E20022100F003FD514B0E20191C13
:4016400000F0D8FC4F4B01221A604F4B4F4A1A604F4B504A1A60504B504A1A60504B00221A60504B504A1A60504B4F4A1A60504B00221A604F4B00221A604F4B01221A602D
:401680004E4B02221A604E4B1B687B607B68012213437B604A4B7A681A604A4B02221A600023FB6066E0484BFA689200D258DC239B0113407B60FB689B00444A9B187A6842
:4016C0001A60414BFA689200D258012313400AD0374B374A1168FA680120041C9440221C92B20A431A60384BFA689200D258022313400AD02F4B2F4A1168FA680120041C37
:401700009440221C92B20A431A602F4BFA689200D25880239B00134003D080235B00BB6002E080235B01BB60274BFA689200D25880235B00134005D1254BFA68520000217F
:40174000D15204E0224BFA6852000021D152BB68204A5343204A9B18181C204900F0C0FD031C9BB219B21E4BFA689200D150FB680133FB60FB68002B95D0BD4605B090BDD4
:401780007119000020001A4000001A40600E005104001A408800008018001A400000FF071C001A4010001A400400040014001A4028021A4038021A4018021A40000F1A40E3
:4017C00030001A40040F1A40D426000080001A403C0100201027000072060000E40C00003801002080B500AF054B054A1268802109060A431A600A2000F0D0FCBD4680BD2F
:4018000000001A4080B500AF034B034A1268520052081A60BD4680BD00001A4080B500AF044B044A1268802149020A431A60BD4680BDC04604001A4080B500AF034B034AC4
:401840001168034A0A401A60BD4680BD04001A40FFFFFEFF80B584B000AF78600023FB607A680323134011D00B4B1A6801231340FB60FB68002B03D17A6802231340F3D171
:40188000FB68002B02D0044B01221A60FB68181CBD4604B080BDC04610021A4080B584B000AF78607B68002B02D0002000F048FC7B68002B08D17B689B00084A9B181B68CE
:4018C0001B041B0CFB6001E00023FB60FB689BB21BB2181CBD4604B080BDC04680011A4080B500AF104B104A1268802109060A431A600E4B1B68002B11DA0D4B1A68802369
:401900005B02134003D00B4B03221A7002E0094B01221A70FFF790FFFFF774FF02E0054B00221A70BD4680BD30001A4000001A4004001A401801002080B500AF0A4B0A4A28
:401940001268520052081A60084B1B78002B09D0FFF75AFE054B1B781A1C0223134001D0FFF75CFFBD4680BD30001A401801002080B582B000AF044B1B687B60024B7A68E7
:401980001A60BD4602B080BD10021A4080B500AF0E4B8022D2041A600C4B0C4A12681A600A4B0A4A12681A60094B0C221A60012000F092F81E2000F055F80F2000F060F859
:4019C000044B31221A60BD4680BDC04600010540240105402801054090B583B000AFFC1D00F053F9031C2370084B084A126801210A431A60FB1D1B78181C00F04AF90120FE
:401A0000182100F04BF8BD4603B090BD0000054080B500AF064B1B78002B04D1FFF7B6FF034B01221A70FFF7D7FFBD4680BDC0461C01002090B583B000AFFC1D00F025F9E7
:401A4000031C2370064B064A126801218A431A60FB1D1B78181C00F01CF9BD4603B090BD0000054080B582B000AF7860034B7A681204120C1A60BD4602B080BD14010540EC
:401A800080B582B000AF7860034B7A681204120C1A60BD4602B080BD0C01054090B585B000AF786039603C1C0F3400F0EEF8031C2370084B3A687968081C9040021C1A60F7
:401AC0003B1C0F331B78181C00F0E3F8BD4605B090BDC0460800054080B582B000AF7860024B7A681A60BD4602B080BD3801054080B582B000AF7860024B7A681A60BD46C2
:401B000002B080BD3001054080B582B000AF786000F04AF87B68181C00F008F8032000F011F800F037F8BD4602B080BD80B582B000AF7860024B7A685A66BD4602B080BD1D
:401B40000000002090B585B000AF021CFB1D1A700E23FB603C1C0B3400F097F8031C23700A4B0A4A11680A4A1140FA1D1078FA68041C9440221C0A431A603B1C0B331B781F
:401B8000181C00F086F8BD4605B090BD08E400E0FF3FFFFF80B500AF024B802292001A60BD4680BD00E100E080B500AF024B802292001A60BD4680BD80E100E080B582B0CF
:401BC00000AF786000F04CF87B68181C00F008F8032000F013F800F039F8BD4602B080BD80B582B000AF7860034A80237968D150BD4602B080BDC0460000002090B585B080
:401C000000AF021CFB1D1A700623FB603C1C0B3400F03BF8031C23700B4B0B4A1268C021101C8843011CFA1D1078FA68041C9440221C0A431A603B1C0B331B78181C00F0E5
:401C400028F8BD4605B090BD10E400E080B500AF024B802252021A60BD4680BD00E100E080B500AF024B802252021A60BD4680BD80E100E0000000000230800804D0C04613
:401C80000138FDD1C046C0467047EFF3108072B6704780F31088704780B500AF044B044A1268802109060A431A60BD4680BDC04604010B4090B585B000AF78603C1C0F34A3
:401CC000FFF7E3FF031C2370094B796807220A40D104074A1068074A02400A431A603B1C0F331B78181CFFF7D4FFBD4605B090BD00010B40FFFFC7FF80B582B000AF78608E
:401D00007B68022B02D9002000F01AFA054B1A687B68DB000133DA4001231340181CBD4602B080BD10020B4080B584B000AF786039607B68022B02D9002000F001FA144BDE
:401D40001B68002B01DBFFF7A7FF7B68181CFFF7D3FF031C002B18D10E4B1B687A68D2000321081C9040021CD2431340FB603A6803231A407B68DB00111C99400B1CFA6833
:401D80001343FB60034BFA681A60BD4604B080BD04010B400C020B4090B583B000AF786039607B68002B02D07B68012B01D1012300E00023002B02D1002000F0C1F90E4B0A
:401DC0001B68002B01DBFFF767FF7B68181CFFF793FF031C002B0BD1084B084A11687A68D20002323868041C9440221C0A431A60BD4603B090BDC04604010B400C020B40E7
:401E000080B582B000AF7860074B1B68002B01DBFFF742FF054B054A11687A680A431A60BD4602B080BDC04604010B4010020B4080B582B000AF7860074B1B68002B01DB71
:401E4000FFF72AFF054B054A12687968C9430A401A60BD4602B080BD04010B4010020B4090B585B000AF78600020FFF745FF041C0120FFF741FF031C1C430220FFF73CFF37
:401E8000031C2343FB60FB68002B13D10B4B1B68002B01DBFFF700FF094B1B68BB60BA68084B1340BB60BA687B681343BB60044BBA681A60BD4605B090BDC04604010B406A
:401EC0000C020B40F7F7FFFF80B584B000AF786039607B68002B02D07B68012B01D1012300E00023002B02D1002000F029F9104B1B68002B01DBFFF7CFFE822000F04EF97B
:401F00000C4B1B68FB607B681B010B4A111C99400B1CDA43FB681340FB60064B7A68120139689140FA680A431A60BD4604B080BD04010B4008020B40FFFF000090B585B0CB
:401F400000AF78603C1C0B34FFF79FFE031C2370224B1B68002B01DBFFF79EFE204B1A68C0231B021A40C0231B029A4214D10123FB601B4B1A4A11681A4A0A408021C90192
:401F80000A431A60164B164A1168164A0A40802109020A431A6001E00023FB607A68124B13407B60114B114A1168114A11407A680A431A60FB68012B06D1094B084A12682C
:401FC000C02109020A431A603B1C0B331B78181CFFF75FFEBD4605B090BDC04604010B4000010B40FF3FFFFF0404040010020B40FBFBFBFF80B584B000AF021C3960FB1D5C
:402000001A7080239B05FB60FB1D1B781F2B02D9002000F095F8FB1D1B7810339B00FA68D3181B68BB60FB1D1B7810339B00FA68D3183A681A60BB68181CBD4604B080BD5A
:4020400090B587B000AF0A1CFB1D011C1970BB1D1A70BB1D1B78032B02D9002000F070F8FB1D1B781F2B02D9002000F069F8FB1D1A7803231340DB0006337B613C1C133410
:40208000FFF703FE031C2370FB1D1B789B08DBB29B0014495B181B68FB607B690322111C99400B1CDA43FB681340FB60BB1D1A787B69111C99400B1CFA681343FB60FB1D49
:4020C0001B789B08DBB29B00064A9B18FA681A603B1C13331B78181CFFF7DBFDBD4607B090BDC04600E400E080B582B000AF021CFB1D1A70064BFA1D11781F220A4001212C
:40210000081C9040021C1A60BD4602B080BDC04600E100E080B582B000AF021CFB1D1A70064BFA1D11781F220A400121081C9040021C1A60BD4602B080BDC04680E100E021
:4021400080B582B000AF021CFB1D1A7001BEBD4602B080BD80B582B000AF786008E00C4B1B68181CFFF788FD7B680A4A9B187B607A6880231B029A42F1D8074B1B687A68B6
:402180005343181CFFF778FDBD4602B080BDC046E40000200080FFFFDC00002080B582B000AF021CBB1D1A80BB1D1B88044A12785343181CFFF760FDBD4602B080BDC04666
:4021C000E000002090B583B000AFFC1DFFF75DFD031C2370114B114A1268520052081A600F4B104A128892B21A600F4B0E4A126804210A431A600D4B1B683B600220FFF794
:4022000059FD30BF094B3A681A60FB1D1B78181CFFF73FFDBD4603B090BDC04600000B400C000B4052F1FF0F10ED00E000010B4080B500AF024B1B78DBB2181CBD4680BDEE
:4022400062000F40002934D00123002210B488422CD301242407A14204D2814202D209011B01F8E7E400A14204D2814202D249005B00F8E7884201D3401A1A434C08A042C6
:4022800002D3001B5C0822438C08A04202D3001B9C082243CC08A04202D3001BDC082243002803D01B0901D00909E3E7101C10BC7047002801D00020C04307B4024802A1C8
:4022C0004018029003BDC046D90000000029F0D003B5FFF7B9FF0EBC4243891A1847C046002941D010B4041C4C40A44601230022002900D54942002800D5404288422CD304
:4023000001242407A14204D2814202D209011B01F8E7E400A14204D2814202D249005B00F8E7884201D3401A1A434C08A04202D3001B5C0822438C08A04202D3001B9C08F3
:402340002243CC08A04202D3001BDC082243002803D01B0901D00909E3E7101C6446002C00D5404210BC7047002806D003DB0020C043400801E08020000607B4024802A1EB
:402380004018029003BDC046190000000029EBD003B5FFF7A7FF0EBC4243891A1847C0467047C04670B50E4B0E4D0024E81A85101E1CAC4204D0A100725890470134F8E722
:4023C00000F08AF90849094A0E1C541AA5100024AC4204D0A300F05880470134F8E770BDE4260000E4260000E4260000EC26000000B58218031C934202D019700133FAE7BD
:4024000000BD00000000000053706565643A200043686561740000002020202020000000494E49540000000050415353000000004641494C0000000052554E200000000073
:4024400000300F40000400400F40000401000F404D300F4032310F4048320F4044330F4008400F4008410F4011430F4002600F40720F005002A0050A060108060C400D0A6C
:402480000E200F05120C14101620180A19031C501D0C1E802201242025052640270A2A0E2C202E4030F0320F34013601370F38A83A023E40580459045F01800C840A86056C
:4024C0008A808C208D148E508F0A9280932094059502960A970598109A209C70A040A11FA220A509A60AA712A820AB20AC03AF02B070B20FB307B480B520B680B718B82082
:40250000B920BE40BF10D804D904DF010050010A04400504064007080A810B280C020E050F20108011881244140216021726181019821B141C401D041E051F3521402240BE
:4025400024082544260827222A042B102E012F2930803210360939803B083D808C048D80C0FFC2FFC4FFCAF2CCCCCE1AE210E64000050102020A040105010632070E0826A7
:402580000A100B2013141415150616481709190F1B101E802024221226802C022E642F20300F328033203480350736703718382039083A823B803E043F04580459045B04F9
:4025C0005F0184028701904292AC93019404961099029C409EAEA102A420A502A611A902AC08AD02AE11B0C1B238B407B501B601B702B8A2B9A0BA08BF50D804D904DF01DD
:4026000003200404050107080A510E221021160217051A511B201C061D011E201F0220082180272929022A082B062C02300133203610370939043C063E225C225D805F04A9
:40264000642065046CA26D046F0C8180822883208404880189808B048D048E01980299029A20A304A482A601A708A908AA12AE20AF08B540B704C074C2ADC4B5CA1FCCE5F2
:40268000CEE2D6F0E402E60108080920522062088E28C250D420D8405F808380A808AD20D620E280E810EC2009010A0422205B026410822084108A048B028D01C20AC8088D
:4026C000D602D801E004E208E6041001110100000400000000020000F8B5C046F8BC08BC9E4670477503000035090000F8B5C046F8BC08BC9E4670474D030000102700007F
:40270000C800002020000000580000000000000000000000400000644B000000C0F1FF0F00366E01C05D0000180000000000E02E00000000000000000000000000000000A3
:402740000000000000000000000000000000000000000000000000000000000000000000000000000000000000000000000000000000000000000000000000000000000059
:402780000000000000000000000000000000000000000000000000000000000000000000000000000000000000000000000000000000000000000000000000000000000019
:4027C00000000000000000000000000000000000000000000000000000000000000000000000000000000000000000000000000000000000000000000000000000000000D9
:402800000000000000000000000000000000000000000000000000000000000000000000000000000000000000000000000000000000000000000000000000000000000098
:0200000490303A
:02000000A72136
:0200000490402A
:200000000000000000000000000000000000000000000000000000000000000000000000E0
:0200000490501A
:0C000000000204C81193110004D4B8B42D
:0200000490600A
:0100000001FE
:00000001FF