:400000000010002011000000D9090000D909000080B500AF00F0EAFC80B500AF214B214A12688021C9020A431A60182001F044FF1C4B1C4A12681C490A401A601B4B1C4AF1
:400040001A601C4B10221A601B4B20221A601B4B30221A601A4B11221A601A4B11221A60194B31221A60194B822212061A600D4B00221A60164B174A1A60174B174A1A6043
:40008000174B184A1A60184B184A1A60184B194A1A60194B194A1A60194B00221A60C046BD4680BD00010B40FFFFFBFF04010B40060000800C0202401C02024020020240CE
:4000C00024020240340202403C02024008010B40000002400E0000804000024010000080800002405F090080040002404C4B008044000240340C008084000240FF0900C08F
:400100000C020B4080B582B000AF72B6FB1D00221A7022E0FB1D1A7813005B009B185B00464A9B183B603B681A78597809020A43997809040A43DB781B06134318003B6810
:400140001A795B791B0213439BB2190000F0C4FBFB1D1A78FB1D01321A70FB1D1B78012BD8D9374A374B1100180000F0C5FB364BA02212011A80354B01221A70344B354A92
:400180001A60354B354A1A60354B364A1A60364B364A1A60364B882292051A60354B364A1A60364B992212041A60354B354A1A60354B992212041A60344B2C4A1A60344BA3
:4001C000882292051A60334BE82252051A60324A314B1B78DBB23C218B43DBB214210B43DBB213702D4A2D4B1B78DBB216210B43DBB213702A4BFD221A602A4B2A4A1A6073
:400200002A4B41221A602A4B2A4A1A602A4B01221A602A4B2A4A1A602A4B01221A602A4BF3221A60294B2A4A1A60FFF7F5FE00F0A5FBC046BD4602B080BDC046542C000025
:40024000842C0000602C000000600F4002600F40000001400333300004000140030000030C000140EE00303000500F400400990004500F4008500F4000009C0810500F407C
:4002800018500F400000032020500F4030500F4034500F4038500F4001700F4000700F40000004400800044036294B00000104400801044006001000000204400802044037
:4002C000B06DDB001802044000030440080304402420CB0010B5064C2378002B07D1054B002B02D0044800E000BF0123237010BDD001002000000000182C0000084B10B545
:40030000002B03D00749084800E000BF07480368002B00D110BD064B002BFBD09847F9E700000000D4010020182C0000C80000200000000080B500AF042002F077FA064B1A
:400340001B78002B05D0044B1B78013BDAB2024B1A70C046BD4680BDCF00002080B500AF012001F0B3FC094B1B78002B06D0074B1B78013BDAB2054B1A7004E001F030FC1F
:40038000024B4B221A70C046BD4680BDD000002080B59CB000AF6D23FB180A221A706C23FB1800221A706B23FB180A221A706A23FB1800221A706923FB1801221A70682372
:4003C000FB1800221A706623FB1800221A8062B600F01EFF0021012000F03AFFD74B180000F070FF01F0A0F901F0BAFAD44B1A000121032000F064FC00F090FB012001F033
:400400006BF90121002002F0E3F8CE4B1900002002F0D6F90121002002F008F9002002F0A3F9012002F038F9C74B180001F0BEFCC64B180001F058FC01F040F9031E34D17C
:400440006B23FB181B78002B07D06B23FB181A786B23FB18013A1A702FE06A23FB181B78002B2AD16A23FB1801221A70B84B64221A706C23FB181B785A425341DAB26C2365
:40048000FB181A700B21002000F0E2FE6C23FB181B78002B04D0AF4B180000F013FF0CE0AD4B180000F00EFF07E06B23FB180A221A706A23FB1800221A706C23FB181B7883
:4004C000002B2DD100F08EF901F01EFF030019006E23FB180F224A401A706E23FB181B78002B04D16D23FB180A221A7012E0984B64221A706D23FB181B78002B0AD06E2308
:40050000FB1800221A706D23FB181A786D23FB18013A1A708A4B6E22BA1812785A70B6E0874B1B78202B07D0854B1B78102B03D0834B1B78402B08D16923FB1801221A7055
:400540006823FB1800221A70A1E06F23FB1800221A7050E0012001F057FE00F043F9784B1B78002BF6D0764B1B78202B03D0744B1B78102B16D16823FB1801221A700F20F5
:4005800001F08CF86E4B1B78202B2CD16623FB181B88002B27D100F05DF96623FB1801221A8020E06F23FB181B78654A11783A00D1546F23FB181B783A00D35CDB43DBB216
:4005C000180001F06BF802E0012001F01DFE5C4B1B78002BF8D10F2001F060F86623FB1800221A8000E0C0466F23FB181A786F23FB1801321A706F23FA186923FB18127836
:400600001B789A42ABD3C8235B00180001F0FCFD6823FB181B78002B39D16F23FB1800221A7025E06F23FB181B783A00D25C444B5A706F23FB181B783A00D35CDB43DBB284
:40064000180001F02BF83C2001F0DEFD3C4B00225A700F2001F022F83C2001F0D5FD00F0C1F86F23FB181A786F23FB1801321A706F23FA186923FB1812781B789A42D1D338
:400680006923FB181A786923FB1801321A700021002000F0DDFD6F23FB18294A12781A706F23FB181B78102B1CD002DC002B29D034E0202B06D0402B30D1284B180000F0F9
:4006C00001FE56E0264B180000F0FCFD6623FB181B88002B4AD100F0BDF86623FB1801221A8043E01F4B180000F0ECFD6623FB181B88002B3CD101F061FA6623FB180122D0
:400700001A8035E0184B180000F0DCFD6623FB1800221A800E4B64221A702AE06F23FB181B78DB43DBB2180000F0B8FF6E23FB1801221A70064B64221A701AE01C2C000065
:40074000CC000020CD0C00005D03000035030000CF000020242C00002C2C0000342C00003C2C0000442C00004C2C0000C04600E0C0466E23FB181B78002B02D10F2000F095
:400780008DFF174B1B78002B00D055E6012001F0B5FF012001F092FE00F05EFF01F044F9002000F099FF0F2000F078FF00F000FA01F064FD00F004FA012000F08DFF01F0A9
:4007C0007BF900F05BFF0F2000F068FF002001F075FE012001F060FF014B64221A702BE6CF00002080B500AF012001F0D7F8031E19D0002001F0F6F803009AB2124B1A8050
:40080000114B1B88452B03D8104B01221A700AE00D4B1B88DB2B03D80C4B02221A7002E00A4B04221A70094B1A78094B9A700821012000F00DFD054B1B78180000F0A2FEA1
:40084000C046BD4680BDC0460602002008020020CC00002080B582B000AFFB1D00221A702DE0FB1D1A781A4B5200D35A180001F0D9FDFB1D1A78164B5200D35A180001F007
:40088000C1FDFB1D1A78124B5200D35A5B089BB2180001F0D7FD01F089FDFB1D1A780D4B5200D35A180001F0AFFC01F091FD0A2001F0AAFCFB1D1A78FB1D01321A70FB1DE4
:4008C0001B781F2BCDD9C046BD4602B080BDC046D40000201401002080B582B000AF786039603A687B680021180002F08DF9C046BD4602B080BDC04680B586B000AF7860A1
:40090000396000233B6100237B612FE07B699B007A68D3181B68BB600F23FB18BA681A70BB68FF229343BB6018E03B695B003A68D3181B781A00BB68D31819003B695B00EA
:400940003A68D3185B780B703B6901333B610F23FB181A780F23FB18013A1A700F23FB181B78002BE1D17B6901337B617B69082BCCD9C046BD4606B080BDC04680B500AFFC
:40098000044B01221A60012000F006F8C046BD4680BDC04600031A4080B584B000AF0200FB1D1A700B4B1B68FB60FB1D1B78002B05D0FB68802212061343FB6003E0FB68E4
:4009C0005B005B08FB60034BFA681A60C046BD4604B080BD80031A4080B500AF02F0E8F803001B680C2B00D1FEE7FEE780B586B000AF224B7B61224B3B61204B7B6135E007
:400A00003B691B68FB603B695B68BB603B699B683B6000237B600CE0FB681A68BB681A60BB680433BB60FB680433FB607B6804337B607A683B689A42EED13B69DB683B6003
:400A400000237B6008E0BB6800221A60BB680433BB607B6804337B607A683B689A42F2D13B6910333B617B69013B7B617B69002BC6D102F0A3F8FFF78BFCFEE7010000002E
:400A8000642F000080B582B000AF00237B600FE07B68032B04D8104B7A689200D35800E00E4B0F4A796889008B507B6801337B607B682F2BECD9FFF725FB0A4B00221A60E7
:400AC0008023DB058022D205126801210A431A60C046BD4602B080BD00000000D909000000000020C000002080B500AF00F070F8C046BD4680BDC04680B500AF064B064AB0
:400B00001268802109060A431A6000F019F800F01FF8C046BD4680BD0000074080B500AF064B1B78002B04D1FFF7DEFF034B01221A70FFF7E1FFC046BD4680BDEC01002070
:400B400080B500AF0B2001F027FBC046BD4680BD80B500AFC046BD4680BDC04680B500AF0F4B1A6880235B00134012D00D4B1A688023DB0113400CD1094B094A12680A49ED
:400B80000A401A60064B064A1268802149000A431A60064B02221A60C046BD4680BDC0460000074060000740FFFEFFFF6C00074080B500AF00F0A8F8C046BD4680BDC0460E
:400BC00080B500AF00F0AAF8C046BD4680BDC04680B500AF244B802252001A60234B244A1A60244B234A12680C210A431A60224B224A1A60224B00221A60224B224A1A6023
:400C0000224B1E4A1A60224B00221A600B2001F0D9FA01210B2001F06BFA1E4B19000B2001F040FA1C4B00221A601C4B00221A601B4B5222FF321A601A4B00221A601A4B01
:400C400000221A60194B00221A60194B00221A70184B00221A70184B00221A80174B00221A70C046BD4680BD00000740600007400008004070000740000307400701008087
:400C800004030740100307406C00FE000002074004020740310D0000C80E0740880E0740480F0740080F0740C80F0740880F074010020020140200200E0200200C02002096
:400CC00080B584B000AFF860B9607A607B68002B10D00B2001F076FA084B7A681A60FB689AB2074B1A80BB689AB2064B1A800B2001F052FAC046BD4604B080BD18020020D7
:400D00001C0200201202002080B500AF024B01221A60C046BD4680BD880E074080B500AF024B00221A60C046BD4680BD880E074080B588B000AFCD4B1B68002B02D0CB4B96
:400D40001B689847CA4B1B88FB61CA4B1B68FB60C94B1B68BB60FA680223FF33134057D0C64BC64A1268520052081A60C44B1B78DBB220221340DBB2002B2CD0C04B1B784E
:400D8000DBB220229343DAB2BD4B1A70BC4B1B78DBB210221343DAB2B94B1A70B94B1B68102213400FD1B84B1B789AB2B04B1B889A4210D0B24B1B78DBB208221343DAB256
:400DC000AF4B1A7007E0AE4B1B78DBB202221343DAB2AB4B1A70AD4BAC4A1268AC490A401A60AC4B00221A60A64B00221A60AA4BAA4A1A609F4BAA4A1A60AA4B00221A704C
:400E00009E4B9E4A1268802109060A431A6099E1BB681022134002D0A34B00221A60BB680A22134000D1C3E0A04B1B680422134000D16FE09E4B1B687B609A4B1B78002B6B
:400E40001CD0012B5ED19B4B1B88002B13D09A4B01221A60994B1A68FB69D3187A68D2B21A70FB690133FB61924B1B88013B9AB2904B1A804AE0FFF771FE47E0904B1B88C8
:400E80001A007B689A423AD98B4B01221A607B68FB618C4B1B881A007B689A4206D9894B1A887B689BB2D31A9AB200E00022814B1A80804B1B88072B03D87A4B01221A702E
:400EC00018E07C4B1B88082B0AD1704B6F4A1268A02109020A431A606E4B00221A6009E06A4B6A4A1268802189010A431A60694B08221A60FB69DAB2634B1A7006E0FFF792
:400F00002DFE03E0002001F073F9C046624B04221A604DE05D4B1A6880239B01134047D0BB68022213400DD0674B1B680F2213403B61564B554A126855490A401A600123C7
:400F40007B6122E05B4B1B88083B9AB2594B1A80584B1B88082B05D8564B1B883B6100237B6112E008233B6101237B610DE0534B1A68FB69D2184E4B1B68DBB21370FB69A4
:400F80000133FB613B69013B3B613B69002BEED17B69002B09D13D4B3C4A1268802109020A431A603B4B00221A603B4B0C221A60BB680222134000D19DE0FB681022134093
:400FC00027D0344B00221A602E4B00221A600223BB612D4B1B781A00FB699A4203D0BB6908221343BB61BB69FA681340BB61244B1B78DBB21A00BB691343BB61BB692022F7
:401000009343BB61BB69DAB21D4B1A70254B00221A70FB68402213406AD0194B1B78DBB220221343DAB2164B1A70174B1B78FB61264B1B68102213404ED0214B1A88FB69C1
:401040009BB2D31A9AB21B4B1A80214B204A1268802149020A431A601D4B1D4A12681D490A401A60074B10221A6038E0F00100200E020020400F0740000E074000000740EB
:4010800014020020880F07400C02002060000740FF5FFFFFC80F0740C00F0740ED0F0000FF0F000010020020880E0740CC0F074040030740F40100206C00074018020020F0
:4010C0001C02002012020020080307406400074004020740FFFFFEFF1E4B04221A601E4B01221A601D4B1E4A1A601E4B01221A601A4BFA681A601C4B1B680422134021D045
:401100001A4B1B88002B11D0194A1A4B1968FB69CB181B78DBB21360FB690133FB61134B1B88013B9AB2114B1A8002E0104BFF221A60114B1B680F221340082BE0D10F4B8C
:4011400010221A60FB699AB20D4B1A80C046BD4608B080BDC80F0740800E0740400F0740FF0F00006C000740000E0740F4010020400207401802002008020740800F074085
:401180000E02002080B500AF282001F03DF8032000F0CAF9052001F037F8032000F0C4F90F2001F031F8032000F0BEF9012001F02BF8022000F0B8F9052001F025F806205E
:4011C00000F0D4F80E2000F0D1F82C2000F0CEF8082000F0CBF8012000F0C8F80C2000F0C5F8032000F0C2F8052001F00DF8C046BD4680BD80B500AF0C2000F0B7F8034B9A
:4012000001221A70C046BD4680BDC046F601002080B500AF064B1B78002B04D1FFF7B2FF034B01221A70FFF7E5FFC046BD4680BDF701002080B500AF082000F097F8034B23
:4012400000221A70C046BD4680BDC046F601002080B582B000AF0200FB1D1A70BB1D0A1C1A70FB1D1B78012B10D002DC002B05D024E0022B12D0032B18D01FE0BB1D1B78F5
:40128000803BDBB2180000F071F817E0BB1D1B78403BDBB2180000F069F80FE0BB1D1B786C3BDBB2180000F061F807E0BB1D1B782C3BDBB2180000F059F8C046C046BD4605
:4012C00002B080BD80B584B000AF78600F23FB1801221A700E23FB187A6812781A7015E00E23FB181B78180000F01AF80F23FB181B787A68D2180E23FB1812781A700F23CF
:40130000FB181A780F23FB1801321A700E23FB181B78002BE4D1C046BD4604B080BDC04680B584B000AF0200FB1D1A7000F044F80F23FB18FA1D127812091A700F23FB1897
:401340001B78180000F0BAF80F23FB18FA1D12780F210A401A700F23FB181B78180000F0ADF8C046BD4604B080BDC04680B584B000AF0200FB1D1A7000F01EF80F23FB18AA
:40138000FA1D127812091A700F23FB181B78180000F0CAF80F23FB18FA1D12780F210A401A700F23FB181B78180000F0BDF8C046BD4604B080BDC04680B582B000AFCA23C3
:4013C0005B007B60374B374A1268FE218A431A60354B1B68354A13403B60334B3A6834490A431A602F4B2F4A126840218A431A602C4B2C4A126880210A431A60002000F00C
:4014000029FF284B274A126820210A431A60012000F020FF274B1B683B60224B214A126820218A431A60002000F014FF3B68102213403B601B4B1B4A126820210A431A6051
:40144000012000F007FF174B164A126820218A431A603B68002B02D10A2000F0FBFE7B68013B7B603B68002B02D07B68002BC5D10C4B0C4A126880218A431A60094B094AE9
:401480001268FE218A431A60074B1B68074A13403B60054B3A6808490A431A60C046BD4602B080BD00020440080204400780FFFF4812000004020440B06D000080B582B0F5
:4014C00000AF0200FB1D1A70164B164A126840210A431A60134B134A126880218A431A60002000F0B7FE0F4B0E4A12681E218A431A600C4A0B4B1968FB1D1B78DB18DBB24A
:4015000020200343DBB20B431360012000F0A2FE044B044A126820218A431A60C046BD4602B080BD0002044080B582B000AF0200FB1D1A70124B124A1268C0218A431A6034
:401540000F4B0F4A12681E218A431A600C4A0C4B1968FB1D1B78DB18DBB220200343DBB20B431360012000F075FE054B044A126820218A431A60C046BD4602B080BDC04669
:401580000002044080B586B000AF78601723FB180A221A701723FB181B780822BA180021D1541723FB181A781723FB18013A1A7021E07B680A21180001F00AFA0B00DAB22A
:4015C0001623FB1830321A701723FB181B780822BA18162179180978D1547B680A21180001F070F903007B601723FB181A781723FB18013A1A707B68092BDAD87B680A2143
:40160000180001F0E5F90B00DAB21623FB1830321A701723FB181B780822BA18162179180978D1541723FB181B780822BA18D3181800FFF747FEC046BD4606B080BDC0468E
:4016400080B500AFC046BD4680BDC04680B500AFC046BD4680BDC04680B500AF054B1A78054B1A70FFF7ECFFFFF7E4FDC046BD4680BDC046F6010020F801002080B500AF52
:40168000FFF7E4FF044B1B78012B01D1FFF7B2FDC046BD4680BDC046F801002080B582B000AF0200FB1D1A70034AFB1D1B781370C046BD4602B080BD72000F4080B500AF95
:4016C000044B1B6880221340DB09DBB21800BD4680BDC0460400044080B584B000AF0200FB1D1A700F4B1B68DAB20F23FB1802218A431A70FB1D1B78DB18DBB20222134086
:40170000D9B20F23FB180F22BA1812780A431A70044B0F22BA1812781A60C046BD4604B080BDC0460000044080B500AF064B1B78002B04D100F00AF8034B01221A7000F036
:40174000EBF8C046BD4680BDF901002080B584B000AF02210E2000F0CBFC544B19000E2000F0A0FC524B01221A60524B1B68002B01DA514900E05149514B514A12680A4322
:401780001A60504B504A1A60504B514A1A60514B00221A60504B514A1A60514B4F4A1A60504B00221A60504B00221A604F4B01221A604F4B02221A604E4B1B687B607B6802
:4017C0004D4A13407B607B68012213437B60494B7A681A60494B02221A600023FB605EE080239A00DC239B0113407B60FB689B00434A944663447A681A6080239B00012240
:4018000013400AD0374B374A11680120FA68904002001204120C0A431A6080239B00022213400AD0304B304A11680120FA68904002001204120C0A431A6080239A00802382
:401840009B00134003D080235B00BB6002E080235B01BB6080239A0080235B00134005D1284BFA6852000021D15204E0254BFA6852000021D152BB68234A5343234A94460A
:4018800063442349180001F0A7F803001BB21900204BFA689200D150FB680133FB60FB68002B9DD0C046BD4604B080BD0D1B000020001A4080031A40600E1053600E00530C
:4018C00000001A4004001A408800008018001A400000FF071C001A4010001A400400040014001A4028021A4038021A4018021A40000F1A4030001A40FFFFFFDF040F1A4092
:4019000080001A40240200201027000072060000E40C00002002002080B500AF084B1B68002B09DB064B064A1268802109060A431A600A2000F08EFCC046BD4680BDC0465B
:4019400000001A4080B500AF044B044A1268520052081A60C046BD4680BDC04600001A4080B500AF044B044A1268802149020A431A60C046BD4680BD04001A4080B500AF10
:40198000044B044A126804490A401A60C046BD4680BDC04604001A40FFFFFEFF80B584B000AF78600023FB607B680322134011D00B4B1B6801221340FB60FB68002B03D1A4
:4019C0007B6802221340F3D1FB68002B02D0044B01221A60FB681800BD4604B080BDC04610021A4080B584B000AF78607B68002B02D0002000F0FCFB7B68002B09D17B68FA
:401A00009B00084A944663441B681B041B0CFB6001E00023FB60FB681BB21800BD4604B080BDC04680011A4080B500AF1D4B1B685B005A081C4B5A601A4B1A4A1268802107
:401A400009060A431A60194B1B68002B24DA184B1A6880235B02134003D0134B03221A7002E0114B01221A70FFF788FFFFF76AFF0E4B1A6880235B03134010D00B4B0B4AE7
:401A800012680C490A401A60074B1B7804221343DAB2054B1A7002E0034B00221A70C046BD4680BD30001A40FC01002000001A4004001A40FFFFEFFF80B500AF104A114BC5
:401AC0005B6813600F4B1B78002B16D00D4B1B781A000423134006D00B4B0B4A1268802149030A431A60FFF717FF064B1B781A000223134001D0FFF733FFC046BD4680BDC3
:401B000030001A40FC01002000001A4080B582B000AF054B1B687B60034B7A681A60C046BD4602B080BDC04610021A4080B500AF104B8022D2041A600E4B0E4A12681A60F6
:401B4000002000F067F80B4B0A4A12681A600A4B0C221A60012000F0ABF8084B31221A601E2000F067F80F2000F074F8C046BD4680BDC04640010540640105406801054045
:401B800090B583B000AFFC1D00F094FE03002370094B094A126802210A431A60FB1D1B78180000F08BFE1821022000F063F8C046BD4603B090BDC0460000054080B500AFA8
:401BC000064B1B78002B04D1FFF7B0FF034B01221A70FFF7D5FFC046BD4680BD0402002090B583B000AFFC1D00F064FE03002370074B074A126802218A431A60FB1D1B78D1
:401C0000180000F05BFEC046BD4603B090BDC0460000054080B582B000AF7860044B7A681204120C1A60C046BD4602B080BDC0464801054080B582B000AF7860044B7A6877
:401C40001204120C1A60C046BD4602B080BDC0465401054080B582B000AF7860044B7A681204120C1A60C046BD4602B080BDC0464C01054090B585B000AF786039600F23F5
:401C8000FC1800F017FE03002370084B79683A6891400A001A600F23FB181B78180000F00DFEC046BD4605B090BDC0460800054080B582B000AF7860034B7A681A60C04663
:401CC000BD4602B080BDC0467801054080B582B000AF7860034B7A681A60C046BD4602B080BDC0467001054080B582B000AF786000F050F87B68180000F00AF8032000F0BC
:401D000015F800F03BF8C046BD4602B080BDC04680B582B000AF7860034B7A685A66C046BD4602B080BDC0460000002090B585B000AF0200FB1D1A700E23FB600B23FC18DE
:401D400000F0B8FD030023700A4B0A4A12680A491140FA1D1078FA68904002000A431A600B23FB181B78180000F0A8FDC046BD4605B090BD08E400E0FF3FFFFF80B500AF4F
:401D8000034B802292001A60C046BD4680BDC04600E100E080B500AF034B802292001A60C046BD4680BDC04680E100E080B582B000AF786000F050F87B68180000F00AF89A
:401DC000032000F015F800F03BF8C046BD4602B080BDC04680B582B000AF7860034B84217A685A50C046BD4602B080BD0000002090B585B000AF0200FB1D1A700E23FB60C4
:401E00000B23FC1800F056FD030023700A4B0A4A12680A491140FA1D1078FA68904002000A431A600B23FB181B78180000F046FDC046BD4605B090BD10E400E0FF3FFFFFEC
:401E400080B500AF034B802292021A60C046BD4680BDC04600E100E080B500AF034B802292021A60C046BD4680BDC04680E100E090B585B000AF78600F23FC1800F01AFDB6
:401E8000030023700A4B7A68D104E02292031140074A1268074802400A431A600F23FB181B78180000F00AFDC046BD4605B090BD00010B40FFFFC7FF90B585B000AF786072
:401EC0000C23FC1800F0F6FC030023707B68022B00D8B3E07B68302B00D9AFE05E4B1B78DBB21A007B689A420AD35C4A0F23FB1812781A705A4A0E23FB1812781A703FE06D
:401F0000584B1B78DBB21A007B689A420AD3564A0F23FB1812781A70544A0E23FB1812781A702DE0524B1B78DBB21A007B689A420AD3504A0F23FB1812781A704E4A0E23FD
:401F4000FB1812781A701BE04C4B1B78DBB21A007B689A420AD34A4A0F23FB1812781A70484A0E23FB1812781A7009E0464A0F23FB1812781A70454A0E23FB1812781A7042
:401F80007B68DA1E0B23FB1841498A5C1A700B23FB181B782F2B0DD97B682A2B0AD93D4B19221A60052000F07BFC0D23FB1819221A7007E0374B1B68DAB20D23FB183F21F0
:401FC0000A401A700B23FA180D23FB1812781B789A4208D22F4B7A68033A2D498A5C1A60052000F05DFC7B68284A9A180A23FB1812781A70284B0A22BA1812781A60274B98
:402000000F22BA1812781A60254B0E22BA1812781A60052000F01EF90B23FA180D23FB1812781B789A420CD91A4B7A68033A18498A5C1A60052000F033FC02E0002000F01B
:40204000D7F80C23FB181B78180000F037FCC046BD4605B090BDC046C0F1FF0FC1F1FF0FC2F1FF0FC3F1FF0FC4F1FF0FC5F1FF0FC6F1FF0FC7F1FF0FC8F1FF0FC9F1FF0FCD
:40208000CAF1FF0FCBF1FF0FCCF1FF0FCDF1FF0F102F00002CFF0B4028FF0B401CFF0B4020FF0B4080B584B000AF02003960FB1D1A7080239B05FB60FB1D1B781F2B02D93C
:4020C000002000F095F8FB1D1B7810339B00FA68D3181B68BB60FB1D1B7810339B00FA68D3183A681A60BB681800BD4604B080BD90B587B000AF0200FB1D1A70BB1D0A1CE1
:402100001A70BB1D1B78032B02D9002000F070F8FB1D1B781F2B02D9002000F069F8FB1D1B7803221340DB0006337B611323FC1800F0C0FB03002370FB1D1B789B08DBB26F
:402140009B00144A944663441B68FB6003227B699A401300DA43FB681340FB60BB1D1A787B699A401300FA681343FB60FB1D1B789B08DBB29B00074A94466344FA681A6071
:402180001323FB181B78180000F098FBC046BD4607B090BD00E400E080B582B000AF0200FB1D1A70064BFA1D12781F210A40012191400A001A60C046BD4602B080BDC0462C
:4021C00000E100E080B582B000AF0200FB1D1A70064BFA1D12781F210A40012191400A001A60C046BD4602B080BDC04680E100E080B582B000AF0200FB1D1A7001BEC046B3
:40220000BD4602B080BDC04680B582B000AF786009E00D4B1B68180000F042FB7B680B4A944663447B607A6880231B029A42F0D8074B1B687A685343180000F031FBC0464E
:40224000BD4602B080BDC046600100200080FFFF5801002080B582B000AF0200BB1D1A80BB1D1B88044A12785343180000F018FBC046BD4602B080BD5C01002090B583B073
:4022800000AFFC1D00F016FB03002370194B194A1268520052081A608023DB058022D205126802210A431A60134B144A128892B21A60134B124A126804210A431A60114B68
:4022C0001B683B600220FFF7D3FD30BF0D4B3A681A608023DB058022D205126802218A431A60FB1D1B78180000F0E8FAC046BD4603B090BD00000B400C000B4052F1FF0F04
:4023000010ED00E000010B4080B500AF024B1B78DBB21800BD4680BD62000F4080B500AF104B8022D2041A600E4B0E4A12681A60002000F067F80B4B0A4A12681A600A4BE2
:402340000C221A60012000F0ABF8084B31221A601E2000F067F80F2000F074F8C046BD4680BDC04600010540240105402801054090B583B000AFFC1D00F09CFA0300237003
:40238000094B094A126801210A431A60FB1D1B78180000F093FA1821012000F063F8C046BD4603B090BDC0460000054080B500AF064B1B78002B04D1FFF7B0FF034B0122FC
:4023C0001A70FFF7D5FFC046BD4680BD0502002090B583B000AFFC1D00F06CFA03002370074B074A126801218A431A60FB1D1B78180000F063FAC046BD4603B090BDC0464B
:402400000000054080B582B000AF7860044B7A681204120C1A60C046BD4602B080BDC0460801054080B582B000AF7860044B7A681204120C1A60C046BD4602B080BDC04673
:402440001401054080B582B000AF7860044B7A681204120C1A60C046BD4602B080BDC0460C01054090B585B000AF786039600F23FC1800F01FFA03002370084B79683A6890
:4024800091400A001A600F23FB181B78180000F015FAC046BD4605B090BDC0460800054080B582B000AF7860034B7A681A60C046BD4602B080BDC0463801054080B582B0FF
:4024C00000AF0200FB1D1A70034AFB1D1B781370C046BD4602B080BD70000F4080B500AF044B044A1268802109060A431A60C046BD4680BD04010B4090B583B000AFFC1D0F
:4025000000F0D8F903002370074B074A1268C02109020A431A60FB1D1B78180000F0CEF9C046BD4603B090BD00010B4080B500AF054B1A68C0231B02134001D0012300E0C7
:4025400000231800BD4680BD00010B4090B583B000AFFC1D00F0AEF9030023700D4B0D4A12680D490A408021C9010A431A60094B084A126808490A40802109020A431A60FE
:40258000FB1D1B78180000F099F9C046BD4603B090BDC04600010B40FF3FFFFF80B582B000AF78607B68022B02D90020FFF720FE064B1A687B68DB000133DA40130001221D
:4025C00013401800BD4602B080BDC04610020B4080B584B000AF786039607B68022B02D90020FFF705FE7B681800FFF7D7FF031E16D10D4B1B687A68D200032191400A0031
:40260000D2431340FB603B6803221A407B68DB009A401300FA681343FB60034BFA681A60C046BD4604B080BD0C020B4080B584B000AF786039607B68002B02D07B68012B02
:4026400001D1012300E00023002B02D10020FFF7CFFD7B681800FFF7A1FF031E16D10D4B1B687A68D2000232012191400A00D2431340FB607B68DB0002333A689A401300E3
:40268000FA681343FB60034BFA681A60C046BD4604B080BD0C020B4080B582B000AF7860FFF71CFF144B144A11687A680A431A607B680122134005D0C0460020FFF76EFFF5
:4026C000031EFAD07A6880235B00134005D0C0460120FFF763FF031EFAD07A6880235B02134005D0C0460220FFF758FF031EFAD0C046BD4602B080BD10020B4080B582B057
:4027000000AF7860FFF712FF031E26D1154B154A12687968C9430A401A607B680122134005D0C0460020FFF739FF031EFAD17A6880235B00134005D0C0460120FFF72EFF49
:40274000031EFAD17A6880235B02134005D0C0460220FFF723FF031EFAD1C046BD4602B080BDC04610020B4090B585B000AF78600020FFF713FF04000120FFF70FFF030087
:402780001C430220FFF70AFF03002343FB60FB68002B0DD1084B1B68BB60BB68074A1340BB60BA687B681343BB60034BBA681A60C046BD4605B090BD0C020B40F7F7FFFFE6
:4027C00080B584B000AF786039607B68002B02D07B68012B01D1012300E00023002B02D10020FFF705FDC920FFF734FD0D4B1B68FB607B681B010C4A9A401300DA43FB684A
:402800001340FB60074B7A68120139689140FA680A431A604320FFF71DFDC046BD4604B080BDC04608020B40FFFF000090B585B000AF78600B23FC1800F03CF80300237045
:40284000FFF774FE031E04D00123FB60FFF77EFE01E00023FB607B680D4A13407B600D4B0C4A12680C4911407A680A431A60094B1B68FB68012B01D1FFF73EFE0B23FB1821
:402880001B78180000F01AF8C046BD4605B090BD0404040010020B40FBFBFBFF000000000230800804D0C0460138FDD1C046C046C0467047EFF3108072B6704780F3108847
:4028C0007047C046002243088B4274D303098B425FD3030A8B4244D3030B8B4228D3030C8B420DD3FF22090212BA030C8B4202D31212090265D0030B8B4219D300E0090A45
:40290000C30B8B4201D3CB03C01A5241830B8B4201D38B03C01A5241430B8B4201D34B03C01A5241030B8B4201D30B03C01A5241C30A8B4201D3CB02C01A5241830A8B42ED
:4029400001D38B02C01A5241430A8B4201D34B02C01A5241030A8B4201D30B02C01A5241CDD2C3098B4201D3CB01C01A524183098B4201D38B01C01A524143098B4201D361
:402980004B01C01A524103098B4201D30B01C01A5241C3088B4201D3CB00C01A524183088B4201D38B00C01A524143088B4201D34B00C01A5241411A00D20146524110466F
:4029C0007047FFE701B5002000F0F0F802BDC0460029F7D076E7704703460B437FD4002243088B4274D303098B425FD3030A8B4244D3030B8B4228D3030C8B420DD3FF22A9
:402A0000090212BA030C8B4202D31212090265D0030B8B4219D300E0090AC30B8B4201D3CB03C01A5241830B8B4201D38B03C01A5241430B8B4201D34B03C01A5241030B64
:402A40008B4201D30B03C01A5241C30A8B4201D3CB02C01A5241830A8B4201D38B02C01A5241430A8B4201D34B02C01A5241030A8B4201D30B02C01A5241CDD2C3098B4262
:402A800001D3CB01C01A524183098B4201D38B01C01A524143098B4201D34B01C01A524103098B4201D30B01C01A5241C3088B4201D3CB00C01A524183088B4201D38B00BC
:402AC000C01A524143088B4201D34B00C01A5241411A00D201465241104670475DE0CA0F00D04942031000D34042534000229C4603098B422DD3030A8B4212D3FC22890101
:402B000012BA030A8B420CD3890192118B4208D3890192118B4204D389013AD0921100E08909C3098B4201D3CB01C01A524183098B4201D38B01C01A524143098B4201D308
:402B40004B01C01A524103098B4201D30B01C01A5241C3088B4201D3CB00C01A524183088B4201D38B00C01A5241D9D243088B4201D34B00C01A5241411A00D20146634642
:402B800052415B10104601D34042002B00D54942704763465B1000D3404201B5002000F005F802BD0029F8D016E770477047C046014B18687047C046C80100200E4B70B5EC
:402BC00000251E000D4CE41AA410A54204D0AB00F35898470135F8E700F0B2F9084B00251E00084CE41AA410A54204D0AB00F35898470135F8E770BD4C2F00004C2F0000E3
:402C00004C2F0000542F000003008218934202D019700133FAE770470000000053706565643A200043686561740000002020202020000000494E49540000000050415353C2
:402C4000000000004641494C0000000052554E200000000000300F40000400400F40000401000F4052300F402D310F4051320F4047330F400A400F4011410F4011430F40C7
:402C800002600F40720F0011010902220312068007020B400C750E080F201042116012241405160A182419021A521B051D141E801F0A211F2422260430803140320F33207C
:402CC00034703507368037183880390A3A083E013F05580459045B045C115F0180C082018320850388508AAE8B108CAA8F10910A930594A0965C972098309A019B409C06EC
:402D00009D0CA505A70AAB0AAF40B001B110B2F0B320B401B540B60FB70FB8A2B92ABE01BF05D804D904DC11DF01004101080510074109400AA80B010D800E141220184999
:402D400019011A281D901E101F21210522602601272529012C012E102F203002326035083751380939803B103D103E043F414580460168028901C0DDC2EFC404CA71CCFDE6
:402D8000CEFFE22000100104020C031005020C0F0E2010161142120913AC14021540163017AE180119201A1E1B111E402A402D082F1130073138323833073440350136409E
:402DC00037C1382039A83A083B023E403F10580459045B045C115F018040850C87028845890A8A0A8B058C048D068E22900691019210944098019A129C159E28A040A44022
:402E0000A802AA04AC40B030B101B304B40FB508B640B702B880B902BA22BE40BF01D804D904DC31DF01004001200380054109200A610DA80E40110812491510184019A137
:402E40001D681E411F082154220223102505261027012C013002371539A83D0A5C105D405F056D906F507A087B08818083818610880189808A408B448C108D808E02914022
:402E80009220959097509A019B049C019F50A002A540A948AB20AD04AE04B601B701C09BC2FFC44FCA10CCE1CECED6F0E004E408E614EA5009080B025004530257086308CC
:402EC0008B08C250D4E0D8405F80620481088E049B80A108AB81AD08AF02B404B704D620D840E080E840EA90EC200A040B2022802708630265018101828087018A048B180A
:402F0000C20AC80CD602D801E204E605100A1101030405060708090A0B0C0E0F101112131415161718191B1C1D1E1F2021222325262728292A2B2E2F303132333435430010
:402F4000F8B5C046F8BC08BC9E467047FD020000850A0000F8B5C046F8BC08BC9E467047D5020000782F0000C80000200801000058000000000000000000000040000064CC
:402F80004B0000001E001E001E00000026001E001900330026000000330000003C0000002D000000280000002A002D0033001E00190016001C00190000001E0000002600A2
:402FC0002200280096002C019600960096002C01580258022C01960096002C012C019600960096009600960096002C01E100E100E100E100960096009600960096009600B5
:403000009600960000366E01C05D0000180000000000E02E0100000000000000000000000000000000000000000000000000000000000000000000003E2F0000000000000E
:4030400000000000000000000000000000000000000000000000000000000000000000000000000000000000000000000000000000000000000000006801002000000000C7
:403080000000000000000000000000000000000000000000000000000000000000000000000000000000000000000000000000000000000000000000000000000000000010
:4030C00000000000000000000000000000000000000000000000000000000000000000000000000000000000000000000000000000000000000000000000000000000000D0
:40310000000000000000000000000000000000000000000000000000000000000000000000000000000000000000000000000000000000000000000000000000000000008F
:40314000000000000000000000000000000000000000000000000000000000000000000000000000000000000000000000000000000000000000000000000000000000004F
:0200000490303A
:020000002D458C
:0200000490402A
:200000000000000000000000000000000000000000000000000000000000000000000000E0
:0200000490501A
:0C000000000204C81193110004D83ED87F
:0200000490600A
:0100000001FE
:00000001FF